:10000000008000105D0100009101000091010000DE
:10001000910100009101000091010000000000002A
:10002000000000000000000000000000910100003E
:10003000910100000000000091010000910100000A
:100040009101000091010000910100009101000068
:100050009101000091010000910100009101000058
:100060009101000091010000910100009101000048
:100070009101000091010000910100009101000038
:100080009101000091010000910100009101000028
:100090009101000091010000910100009101000018
:1000A0009101000091010000910100009101000008
:1000B00091010000910100009101000091010000F8
:1000C00091010000910100009101000091010000E8
:1000D0000000000000000000000000000000000020
:1000E0000000000000000000000000000000000010
:1000F0000000000000000000000000000000000000
:1001000080B485B000AFF860B9607A6009E07B68C0
:100110001A68FB681A60FB680433FB607B68043371
:100120007B60FA68BB689A42F1D300BF1437BD46C2
:1001300080BC704780B483B000AF7860396004E061
:100140007B681A1D7A6000221A607A683B689A42BE
:10015000F6D300BF0C37BD4680BC704780B500AFFA
:10016000064A07490748FFF7CBFF07490748FFF74B
:10017000E1FF0021002000F00FF8FEE7200400005E
:10018000000000100000001000000010000000102F
:1001900080B400AFFEE700BF80B483B000AF7860EA
:1001A00039600C4A0B4B1B6843F080531360044AC0
:1001B000044B4FF08051116000BF00BF1960FAE797
:1001C0009CC0092098C00920002318460C37BD4662
:1001D00080BC704780C0092080B400AF0D4B1B6805
:1001E000C3F34063DBB2012B10D10B4A13686FF3EA
:1001F00041031360094A1368AA2161F307031360DE
:10020000064A1368552161F30703136000BFBD461A
:1002100080BC704788C00F4080C00F408CC00F402A
:1002200080B400AF0D4B1B68C3F34063DBB2002BFF
:1002300010D10B4A136843F002031360094A136894
:10024000AA2161F307031360064A1368552161F37D
:100250000703136000BFBD4680BC704788C00F40D5
:1002600080C00F408CC00F4080B400AF0D4B1B68A6
:10027000C3F30063DBB2012B10D10B4A13686FF399
:1002800000031360094A1368AA2161F3070313608E
:10029000064A1368552161F30703136000BFBD468A
:1002A00080BC704788C00F4080C00F408CC00F409A
:1002B00080B483B000AF7860134B1B68C3F3401366
:1002C000DBB2002B1BD17B68104A934205D80E4A43
:1002D00013686FF30413136004E00B4A136843F0D0
:1002E00010031360084A136843F02003136000BF33
:1002F000054B1B68C3F38013DBB2002BF8D000BFA3
:100300000C37BD4680BC7047A0C10F40BFE1E40080
:1003100080B400AF114B1B68C3F30063DBB2002B4A
:1003200018D10F4A136843F0010313600D4A136894
:10033000AA2161F3070313600A4A1368552161F388
:100340000703136000BF054B1B68C3F38063DBB278
:10035000002BF8D000BFBD4680BC704788C00F405E
:1003600080C00F408CC00F4090B583B000AF0446F2
:10037000084611461A462346FB710346BB800B46CE
:10038000BB711346FB70FFF727FFFFF76DFFFB798B
:10039000012B02D11D48FFF78BFF1D4A1368012175
:1003A00061F3010313601B4ABB88C3F30E0399B2C8
:1003B000136861F30E031360174A1368AA2161F3EF
:1003C00007031360144A1368552161F30703136090
:1003D000104AB979136861F3174313600E4A136822
:1003E000AA2161F3070313600B4A1368552161F3D7
:1003F00007031360094AFB781370FFF789FFFFF7C3
:100400000FFF00BF0C37BD4690BD00BF001BB700FB
:100410000CC10F4084C00F408CC00F4004C10F407E
:00000001FF
