:100000000080001075050000110600001D060000AC
:10001000290600003506000041060000000000002F
:100020000000000000000000000000004D0600007D
:100030005906000000000000650600009105000060
:1000400000000000000000000000000000000000B0
:1000500000000000000000000000000000000000A0
:100060000000000000000000000000000000000090
:100070000000000000000000000000000000000080
:100080000000000000000000000000000000000070
:100090000000000000000000000000000000000060
:1000A0000000000000000000000000000000000050
:1000B0000000000000000000000000000000000040
:1000C0000000000000000000000000000000000030
:1000D0000000000000000000000000000000000020
:1000E0000000000000000000000000000000000010
:1000F0000000000000000000000000000000000000
:1001000000000000000000000000000000000000EF
:10011000B0B48DB000AFF8607B600B46FB72134645
:10012000BB721E4B07F110041D460FCD0FC42B6888
:1001300023704FF08053FB6200237B620023BB627D
:100140001CE0FA68FB6AB2FBF3F37B627B6AFA6A33
:1001500002FB03F3FA68D31AFB607A68BB6A1344A4
:1001600007F110017A6A0A4412781A70BB6A0133E7
:10017000BB62FB7AFA6AB2FBF3F3FB62FB6A002B09
:10018000DFD17A68BB6A134400221A70BB6ADBB203
:1001900018463437BD46B0BC704700BFA40B000002
:1001A00080B485B000AF78600B46FB70FB785BB223
:1001B000002B04DBFB78FB6000233B7227E0FB781D
:1001C00003F0C003802B06D1FB7803F03F03FB60F4
:1001D000FF233B721BE0FB7803F0E003C02B06D14A
:1001E000FB7803F03F03FB6001233B720FE0FB78D9
:1001F00003F0F003E02B06D1FB7803F01F03FB6054
:1002000002233B7203E0FF23FB60F6233B727B6813
:100210001A4607F1080393E8030082E803007868B0
:100220001437BD4680BC704780B58AB000AFF86017
:10023000B960BB681A7807F1140311461846FFF736
:10024000AFFF012387F82030BB69FB613B7D5BB2C8
:10025000002B49DD3B7D87F8273040E0BB68013348
:10026000BB60BB681A783B4611461846FFF798FFFB
:1002700007F114033A4692E8030083E803003B7D4C
:100280005BB2B3F1FF3F12D1FB699A01BB69134422
:10029000FB6197F820300133DBB287F8203097F804
:1002A0002730DBB2013BDBB287F8273017E03B7D1C
:1002B0005BB213F10A0F06D14FF6FD73FB61032306
:1002C00087F8213027E03B7D5BB2B3F1FF3F06D0DA
:1002D0004FF6FD73FB61012387F821301BE097F98E
:1002E0002730002BBAD116E03B7D5BB213F10A0F29
:1002F00006D14FF6FD73FB61032387F821300AE036
:100300003B7D5BB2B3F1FF3F05D14FF6FD73FB615F
:10031000022387F82130002387F82130FB681A4632
:1003200007F11C0393E8030082E80300F86828370C
:10033000BD4680BD80B485B000AF786039603B6851
:100340007F2B08D83B68DBB203F07F03DBB23B7244
:1003500001233B7358E03B68B3F5006F10D23B6854
:100360009B09DBB2403BDBB23B723B68DBB203F084
:100370003F03DBB2803BDBB27B7202233B7343E083
:100380003B68B3F5803F19D23B681B0BDBB2203BC7
:10039000DBB23B723B689B09DBB203F03F03DBB28D
:1003A000803BDBB27B723B68DBB203F03F03DBB226
:1003B000803BDBB2BB7203233B7325E03B68B3F5A4
:1003C000001F21D23B689B0CDBB2103BDBB23B72BF
:1003D0003B681B0BDBB203F03F03DBB2803BDBB2BD
:1003E0007B723B689B09DBB203F03F03DBB2803BCF
:1003F000DBB2BB723B68DBB203F03F03DBB2803B96
:10040000DBB2FB7204233B737B681A4607F10803D7
:10041000186810609B88938078681437BD4680BC4C
:10042000704700BF80B400AF0D4B00221A600D4A28
:1004300013680D4961F3170313600C4A136843F006
:1004400004031360094A136843F002031360074A68
:10045000136843F00103136000BFBD4680BC7047C2
:100460001800001014E000E03F420F0010E000E030
:1004700080B485B000AF134BFB60134B3B60134B54
:10048000BB60134B7B6009E0BB681A68FB681A60AD
:10049000FB680433FB60BB680433BB60FA683B68ED
:1004A0009A42F1D304E07B681A1D7A6000221A6038
:1004B0007B68084A9342F6D300BF1437BD4680BC20
:1004C000704700BF0000001000000010FC0E00008C
:1004D000000000101C00001080B400AFFEE700BF59
:1004E00080B485B000AF786039607B68FB60FB68E2
:1004F00040334FF080721A60FB683C333A681A60F0
:10050000FB683833054A1A60FB6820336FF0060237
:100510001A6000BF1437BD4680BC7047D904000084
:1005200080B500AF0C4B0D4A5A600D4B19460B4875
:10053000FFF7D6FF084B0B4A9A600B4B1946094848
:10054000FFF7CEFF044B094ADA60094B194607480A
:10055000FFF7C6FF00BF80BD08000010F02F00208D
:10056000F50A0000F01F0020850B0000F00F0020AE
:10057000950B000080B500AFFFF77AFF00F08CF814
:1005800000F008F900F006FA00F0FCFA00BF80BDA8
:100590000549EFF3088020E9F04F086080F30888F0
:1005A000BFF36F8FBFF34F8F04000010144B1B6815
:1005B0000133134A1360134B1B68134A1268134923
:1005C00041F823200F4B1B68013303F003030D4A4E
:1005D00013600C4B1B680D4A52F823300A4A136013
:1005E000DFF814100868B0E8F04F80F30888BFF314
:1005F0006F8FBFF34F8F70470400001000BF00BF24
:100600001800001000000010040000100800001086
:1006100080B400AF00BFBD4680BC704780B400AF5F
:1006200000BFBD4680BC704780B400AF00BFBD4670
:1006300080BC704780B400AF00BFBD4680BC70472F
:1006400080B400AF00BFBD4680BC704780B400AF2F
:1006500000BFBD4680BC704780B400AF00BFBD4640
:1006600080BC704780B400AF00BFBD4680BC7047FF
:1006700080B400AF074A1368AA2161F3070313602F
:10068000044A1368552161F30703136000BFBD4698
:1006900080BC70478CC00F4080B500AF374B1B68E3
:1006A000C3F34063DBB2002B06D0354A13686FF307
:1006B00041031360FFF7DCFF304B1B68C3F300639B
:1006C000DBB2002B06D02E4A13686FF300031360D1
:1006D000FFF7CEFF2B4B1B68C3F34013DBB2002B9D
:1006E00009D1284A13686FF304131360254A13686D
:1006F00043F02003136000BF224B1B68C3F3801339
:10070000DBB2002BF8D0204A13686FF307031360A5
:100710001E4A1368012161F301031360FFF7A8FF6C
:100720001B4A1368132161F30E031360FFF7A0FF48
:10073000174A1368032161F317431360FFF798FF0B
:100740000F4A136843F001031360FFF791FF0E4A4D
:1007500013686FF30703136000BF084B1B68C3F3F4
:100760008063DBB2002BF8D0054A136843F0020324
:100770001360FFF77DFF00BF80BD00BF88C00F4042
:1007800080C00F40A0C10F4014C00F400CC10F40EB
:1007900084C00F4080B400AF064A136843F480134E
:1007A0001360044A136843F00103136000BFBD46A1
:1007B00080BC704700C0092080B400AF064A1368AF
:1007C00043F480131360044A136843F00103136079
:1007D00000BFBD4680BC704718C0092080B400AF80
:1007E000064A136843F480131360044A136843F005
:1007F0000103136000BFBD4680BC70471CC00920C8
:1008000080B400AF134B1B68C3F30003DBB2012BB2
:1008100005D1114A136843F00103136004E00F4A45
:10082000136843F0010313600A4B1B68C3F30053C2
:10083000DBB2012B05D1084A136843F4801313601F
:1008400004E0064A136843F48013136000BFBD46FA
:1008500080BC704714C009201CC0092018C00920A2
:1008600080B485B000AF0346B9607A60FB730BE0DB
:10087000BB681A78FB7B5340DBB21A46084B9B5C83
:10088000FB73BB680133BB607B685A1E7A60002B28
:10089000EED1FB7B18461437BD4680BC704700BFC5
:1008A000B80B000080B485B000AF0346B9607A6031
:1008B000FB810FE0FB891B0A9AB2FB89B9680978B2
:1008C0004B40DBB2094931F813305340FB81BB6820
:1008D0000133BB607B685A1E7A60002BEAD1FB892A
:1008E00018461437BD4680BC704700BFB80C0000E6
:1008F00080B485B000AF78600023FB6012E00F4B3E
:100900001B68C3F34013DBB2012B08D10C4A796892
:10091000FB680B441978136861F307031360FB68E5
:100920000133FB607A68FB6813441B78002BE6D127
:1009300000BF1437BD4680BC704700BF14C00040E4
:1009400000000C4080B485B000AF786039600023AF
:10095000FB6012E00D4B1B68C3F34013DBB2012BAD
:100960000BD10B4A7968FB680B441978136861F363
:1009700007031360FB680133FB60FA683B689A4227
:10098000E8D300BF1437BD4680BC704714C0004098
:1009900000000C4080B400AF364A1368012161F3B7
:1009A00005131360334A1368012161F38713136041
:1009B000314A136843F0300313602F4A136843F041
:1009C000C00313602D4A13786FF3C71313702C4ABA
:1009D000136843F001031360294A136843F00203CC
:1009E0001360274A136843F004031360244A136812
:1009F0006FF388131360224A13686FF3C303136005
:100A0000204A136843F0030313601E4A13686FF310
:100A1000C30313601B4A13686FF382031360194A00
:100A2000136843F080031360174A1368052161F3CC
:100A300003031360144A1368082161F3071313605A
:100A4000124A13680A2161F307031360104A1368FE
:100A50006FF3070313600B4A13686FF3C713136038
:100A6000064A137843F08003137000BFBD4680BC74
:100A7000704700BF00C0024040C0024030C000408C
:100A800008C000400CC0004028C0004000000C40DE
:100A900004000C4080B485B000AF78600023FB6098
:100AA00002E0FB680133FB607B6842F2107202FBDC
:100AB00003F2FB689A42F4D800BF1437BD4680BCED
:100AC000704700BFB0B58AB000AF00237B62084B0F
:100AD0003C461D460FCD0FC40FCD0FC42B682360BD
:100AE0006420FFF7D7FF7B6A01337B62F8E700BF22
:100AF000B80E0000B0B58EB000AF42237B631D4B33
:100B000007F108041D460FCD0FC40FCD0FC42B688D
:100B100023601948FFF7ECFE3B46796B1846FFF758
:100B200009FC07F12C033A461068186092889A80F5
:100B300007F1080310221021786BFFF7E9FA07F19B
:100B400008031846FFF7D4FE0C48FFF7D1FE97F8CC
:100B500030301A4607F12C0311461846FFF7F2FE13
:100B60000748FFF7C5FEC820FFF794FF7B6B0133F2
:100B70007B63CEE7B80E0000DC0E0000EC0E000038
:100B8000F40E000080B500AFFFF73AFEC820FFF773
:100B900081FFF9E780B500AF4FF4C870FFF77AFF27
:100BA000FAE700BF30313233343536373839414215
:100BB000434445460000000000122436485A6C7E2B
:100BC0009082B4A6D8CAFCEE322016047A685E4C35
:100BD000A2B08694EAF8CEDC647640522C3E081A25
:100BE000F4E6D0C2BCAE988A564472601E0C3A2815
:100BF000C6D4E2F08E9CAAB8C8DAECFE8092A4B605
:100C0000584A7C6E10023426FAE8DECCB2A09684F4
:100C10006A784E5C22300614ACBE889AE4F6C0D2E4
:100C20003C2E180A746650429E8CBAA8D6C4F2E0D4
:100C30000E1C2A38465462708290A6B4CAD8EEFCC4
:100C4000120036245A487E6CB0A29486F8EADCCEB4
:100C500020320416687A4C5EE6F4C2D0AEBC8A98A4
:100C6000766452403E2C1A08D4C6F0E29C8EB8AA94
:100C7000445660720C1E283A4A586E7C0210263484
:100C8000DAC8FEEC9280B6A4786A5C4E3022140674
:100C9000E8FACCDEA0B284962E3C0A186674425064
:100CA000BEAC9A88F6E4D2C01C0E382A5446706254
:100CB0008C9EA8BAC4D6E0F20000C1C081C1400138
:100CC00001C3C003800241C201C6C006800741C7FC
:100CD0000005C1C581C4400401CCC00C800D41CDCC
:100CE000000FC1CF81CE400E000AC1CA81CB400B9C
:100CF00001C9C009800841C801D8C018801941D96C
:100D0000001BC1DB81DA401A001EC1DE81DF401FFB
:100D100001DDC01D801C41DC0014C1D481D540150B
:100D200001D7C017801641D601D2C012801341D31B
:100D30000011C1D181D0401001F0C030803141F1AB
:100D40000033C1F381F240320036C1F681F74037FB
:100D500001F5C035803441F4003CC1FC81FD403DCB
:100D600001FFC03F803E41FE01FAC03A803B41FB9B
:100D70000039C1F981F840380028C1E881E94029EB
:100D800001EBC02B802A41EA01EEC02E802F41EFFB
:100D9000002DC1ED81EC402C01E4C024802541E50B
:100DA0000027C1E781E640260022C1E281E340231B
:100DB00001E1C021802041E001A0C060806141A12B
:100DC0000063C1A381A240620066C1A681A74067FB
:100DD00001A5C065806441A4006CC1AC81AD406DCB
:100DE00001AFC06F806E41AE01AAC06A806B41AB9B
:100DF0000069C1A981A840680078C1B881B940796B
:100E000001BBC07B807A41BA01BEC07E807F41BFFA
:100E1000007DC1BD81BC407C01B4C074807541B50A
:100E20000077C1B781B640760072C1B281B340731A
:100E300001B1C071807041B00050C19081914051AA
:100E40000193C053805241920196C05680574197FA
:100E50000055C19581944054019CC05C805D419DCA
:100E6000005FC19F819E405E005AC19A819B405B9A
:100E70000199C059805841980188C04880494189EA
:100E8000004BC18B818A404A004EC18E818F404FFA
:100E9000018DC04D804C418C0044C184818540450A
:100EA0000187C047804641860182C042804341831A
:100EB0000041C1818180404000000000000000002E
:100EC0000000000000000000000000000000000022
:100ED0000000000000000000000000002D2D3E2D4D
:100EE0002D3E206D61696E303120000020207C2075
:0C0EF000200000002020202D2D3E0A00D4
:04000003000005757F
:00000001FF
