:10000000008000105D0100009101000091010000DE
:10001000910100009101000091010000000000002A
:10002000000000000000000000000000910100003E
:10003000910100000000000091010000910100000A
:100040009101000091010000910100009101000068
:100050009101000091010000910100009101000058
:100060009101000091010000910100009101000048
:100070009101000091010000910100009101000038
:100080009101000091010000910100009101000028
:100090009101000091010000910100009101000018
:1000A0009101000091010000910100009101000008
:1000B00091010000910100009101000091010000F8
:1000C00091010000910100009101000091010000E8
:1000D0000000000000000000000000000000000020
:1000E0000000000000000000000000000000000010
:1000F0000000000000000000000000000000000000
:1001000080B485B000AFF860B9607A6009E07B68C0
:100110001A68FB681A60FB680433FB607B68043371
:100120007B60FA68BB689A42F1D300BF1437BD46C2
:1001300080BC704780B483B000AF7860396004E061
:100140007B681A1D7A6000221A607A683B689A42BE
:10015000F6D300BF0C37BD4680BC704780B500AFFA
:10016000064A07490748FFF7CBFF07490748FFF74B
:10017000E1FF0021002000F083F8FEE78C0500007D
:10018000000000100000001000000010000000102F
:1001900080B400AFFEE700BF80B500AF274B01225F
:1001A0001A60274B01221A60264B01221A60264B47
:1001B00001221A60254B01221A60254B01221A6088
:1001C000244B01221A60244B01221A60234B012286
:1001D0001A60234B01221A60224B01221A60224B23
:1001E00001221A60214800F081F8214B01221A6097
:1001F0001E4800F07BF81F4B01221A60194B0122A8
:100200001A601D4B01221A601C4B01221A60164B0A
:1002100001221A60154800F069F8154B01221A6096
:10022000124800F063F80F4B00221A60124B0022B4
:100230001A60124B00221A6000BF80BD7410382370
:10024000640C38236C0438236004382354043823A6
:10025000480438234C003823680C38235C043823C6
:1002600050043823680F38235C073823808D5B00E7
:10027000DC073823E80F38234C033823480738239A
:1002800080B582B000AF78603960022300220E2171
:10029000012000F01FF9FFF77FFF054A05490648D6
:1002A00000F00CF8002318460837BD4680BD00BF9B
:1002B000F0133823701338237010382380B584B0BE
:1002C00000AFF860B9607A60FB6801221A607B6851
:1002D00001221A60044800F009F8BB6801221A6084
:1002E000014800F003F8F2E7808D5B0080B483B032
:1002F00000AF786002E07B68013B7B607B68002B8D
:10030000F9D100BF0C37BD4680BC704780B400AF48
:100310000B4A0B4B1B6843F080531360DFF810202F
:10032000044B4FF08051116000BF00BF1960FAE725
:100330009CC0092098C0092000BFBD4680BC704702
:1003400080C0092080B400AF0D4B1B68C3F340632D
:10035000DBB2012B10D10B4A13686FF3410313601A
:10036000094A1368AA2161F307031360064A136858
:10037000552161F30703136000BFBD4680BC704781
:1003800088C00F4080C00F408CC00F4080B400AFC9
:100390000D4B1B68C3F34063DBB2002B10D10B4A3B
:1003A000136843F002031360094A1368AA2161F33A
:1003B00007031360064A1368552161F307031360AE
:1003C00000BFBD4680BC704788C00F4080C00F4052
:1003D0008CC00F4080B400AF0D4B1B68C3F30063AB
:1003E000DBB2012B10D10B4A13686FF300031360CB
:1003F000094A1368AA2161F307031360064A1368C8
:10040000552161F30703136000BFBD4680BC7047F0
:1004100088C00F4080C00F408CC00F4080B483B0B4
:1004200000AF7860134B1B68C3F34013DBB2002BA3
:100430001BD17B68104A934205D80E4A13686FF3AC
:100440000413136004E00B4A136843F010031360B5
:10045000084A136843F02003136000BF054B1B6874
:10046000C3F38013DBB2002BF8D000BF0C37BD46BE
:1004700080BC7047A0C10F40BFE1E40080B400AF72
:10048000114B1B68C3F30063DBB2002B18D10F4A7A
:10049000136843F0010313600D4A1368AA2161F346
:1004A000070313600A4A1368552161F307031360B9
:1004B00000BF054B1B68C3F38063DBB2002BF8D091
:1004C00000BFBD4680BC704788C00F4080C00F4051
:1004D0008CC00F4090B583B000AF0446084611466B
:1004E0001A462346FB710346BB800B46BB7113467D
:1004F000FB70FFF727FFFFF76DFFFB79012B02D1A0
:100500001D48FFF78BFF1D4A1368012161F30103AA
:1005100013601B4ABB88C3F30E0399B2136861F3DF
:100520000E031360174A1368AA2161F307031360CF
:10053000144A1368552161F307031360104AB9790F
:10054000136861F3174313600E4A1368AA2161F31D
:10055000070313600B4A1368552161F30703136007
:10056000094AFB781370FFF789FFFFF70FFF00BF01
:100570000C37BD4690BD00BF001BB7000CC10F403B
:0C05800084C00F408CC00F4004C10F402D
:00000001FF
