:10000000008000105D0100009101000091010000DE
:10001000910100009101000091010000000000002A
:10002000000000000000000000000000910100003E
:10003000910100000000000091010000910100000A
:100040009101000091010000910100009101000068
:100050009101000091010000910100009101000058
:100060009101000091010000910100009101000048
:100070009101000091010000910100009101000038
:100080009101000091010000910100009101000028
:100090009101000091010000910100009101000018
:1000A0009101000091010000910100009101000008
:1000B00091010000910100009101000091010000F8
:1000C00091010000910100009101000091010000E8
:1000D0000000000000000000000000000000000020
:1000E0000000000000000000000000000000000010
:1000F0000000000000000000000000000000000000
:1001000080B485B000AFF860B9607A6009E07B68C0
:100110001A68FB681A60FB680433FB607B68043371
:100120007B60FA68BB689A42F1D300BF1437BD46C2
:1001300080BC704780B483B000AF7860396004E061
:100140007B681A1D7A6000221A607A683B689A42BE
:10015000F6D300BF0C37BD4680BC704780B500AFFA
:10016000064A07490748FFF7CBFF07490748FFF74B
:10017000E1FF0021002000F00FF8FEE7CC010000B5
:10018000000000100000001000000010000000102F
:1001900080B400AFFEE700BF80B483B000AF7860EA
:1001A0003960074A064B1B6843F080531360054BC8
:1001B0004FF080521A60044B4FF080521A60F6E7FD
:0C01C00080C009209CC0092098C00920C4
:00000001FF
